:100000000C942A001895000018950000189500001F
:1000100018950000189500000C949418189500008D
:10002000189500001895000018950000189500001C
:10003000189500000C94121E1895000018950000E9
:1000400018950000189500001895000018950000FC
:10005000189500008FE58DBFC0E6E8E74E2E88E0DA
:100060008EBFD7E0F5E05F2EA89584B7082E877F76
:1000700084BF88E1992781BD91BDEEEFF7E0A0E64E
:10008000B0E088278D933197E9F789E189B980E05D
:1000900080BD88E18AB966248898899A8D9A8C9A5D
:1000A00088988A988B9A8D9A83E88FBD83E08EBD5D
:1000B00080E094E09BBD8ABD789479B77F7D79BF5D
:1000C0008CEC809303018CEC809304018CEC809386
:1000D00005018CEC809306018CEC809307018CEC7D
:1000E000809308017091DE0072607093DE0081E001
:1000F000809320010C947C008FEF8ABB8FEF84BB30
:100100000C94DD0240E050E060E070E0AA81BB8129
:100110000D911D912D913C910E94571E11F00C9450
:1001200093000C94DC02A881B9810C91003011F08D
:100130000C94A501AC81BD810C91003011F00C94A0
:10014000F300AEEDB0E08C9184FB16F00C94AF00A0
:1001500091E0A3E0B1E00E945D1B0C94B40091E03B
:10016000A6E0B1E00E945D1B0091030140910601F1
:100170000423A9E0B1E00C93A9E0B1E08C9180FBED
:10018000ABE3B0E08C9180F98C93A9E0B1E08C9165
:1001900081FBABE3B0E08C9181F98C93A9E0B1E0F5
:1001A0008C9182FBABE3B0E08C9182F98C93A9E057
:1001B000B1E08C9183FBABE3B0E08C9183F98C933D
:1001C000A0E6B0E00E945B19AEEDB0E08C9184FB3C
:1001D000882780F9809580FBAEEDB0E08C9184F9A2
:1001E0008C930C94A301AC81BD810C91013011F072
:1001F0000C944C01AEEDB0E08C9183FB16F00C94A6
:10020000080191E0A4E0B1E00E945D1B0C940D0197
:1002100091E0A7E0B1E00E945D1B009104014091D4
:1002200007010423AAE0B1E00C93AAE0B1E08C91AD
:1002300080FBABE3B0E08C9184F98C93AAE0B1E051
:100240008C9181FBABE3B0E08C9185F98C93AAE0B3
:10025000B1E08C9182FBABE3B0E08C9186F98C939A
:10026000AAE0B1E08C9183FBABE3B0E08C9187F91D
:100270008C93A4E6B0E00E945B19AEEDB0E08C91E7
:1002800083FB882780F9809580FBAEEDB0E08C91F0
:1002900083F98C930C94A301AC81BD810C91023045
:1002A00011F00C94A301AEEDB0E08C9182FB16F03E
:1002B0000C94610191E0A5E0B1E00E945D1B0C94FB
:1002C000660191E0A8E0B1E00E945D1B009105018C
:1002D000409108010423ABE0B1E00C93ABE0B1E046
:1002E0008C9180FBA5E3B0E08C9180F98C93ABE01E
:1002F000B1E08C9181FBA5E3B0E08C9181F98C9306
:10030000ABE0B1E08C9182FBA5E3B0E08C9182F987
:100310008C93ABE0B1E08C9183FBA5E3B0E08C91D2
:1003200083F98C93A8E6B0E00E945B19AEEDB0E0D3
:100330008C9182FB882780F9809580FBAEEDB0E040
:100340008C9182F98C930C94AE02AC81BD810C919E
:10035000003011F00C94FE01AEEDB0E08C9184FB06
:1003600016F40C94BA0191E0A3E0B1E00E94671B7F
:100370000C94BF0191E0A6E0B1E00E94671B0091E0
:100380000301409106010423A9E0B1E00C93A9E028
:10039000B1E08C9180FBABE3B0E08C9180F98C9361
:1003A000A9E0B1E08C9181FBABE3B0E08C9181F9E5
:1003B0008C93A9E0B1E08C9182FBABE3B0E08C912F
:1003C00082F98C93A9E0B1E08C9183FBABE3B0E0C0
:1003D0008C9183F98C93A0E6B0E00E946F19AEED8A
:1003E000B0E08C9184FB882780F9809580FBAEED8E
:1003F000B0E08C9184F98C930C94AE02AC81BD81F9
:100400000C91013011F00C945702AEEDB0E08C91DC
:1004100083FB16F40C94130291E0A4E0B1E00E9477
:10042000671B0C94180291E0A7E0B1E00E94671BE3
:1004300000910401409107010423AAE0B1E00C936C
:10044000AAE0B1E08C9180FBABE3B0E08C9184F941
:100450008C93AAE0B1E08C9181FBABE3B0E08C918E
:1004600085F98C93AAE0B1E08C9182FBABE3B0E01C
:100470008C9186F98C93AAE0B1E08C9183FBABE37D
:10048000B0E08C9187F98C93A4E6B0E00E946F19DC
:10049000AEEDB0E08C9183FB882780F9809580FBDE
:1004A000AEEDB0E08C9183F98C930C94AE02AC81EC
:1004B000BD810C91023011F00C94AE02AEEDB0E0B3
:1004C0008C9182FB16F40C946C0291E0A5E0B1E0F3
:1004D0000E94671B0C94710291E0A8E0B1E00E94B9
:1004E000671B00910501409108010423ABE0B1E0D6
:1004F0000C93ABE0B1E08C9180FBA5E3B0E08C9174
:1005000080F98C93ABE0B1E08C9181FBA5E3B0E086
:100510008C9181F98C93ABE0B1E08C9182FBA5E3E7
:10052000B0E08C9182F98C93ABE0B1E08C9183FBCD
:10053000A5E3B0E08C9183F98C93A8E6B0E00E942B
:100540006F19AEEDB0E08C9182FB882780F9809521
:1005500080FBAEEDB0E08C9182F98C93ACE0B1E021
:100560008C9187FB16F00C94BF02EF93FF93E0EDA4
:10057000F0E30E94F319FF91EF910C94C502ACE1F6
:10058000B1E0ED91FC910E94F619AA81BB810E9415
:100590006F1940E050E060E070E0AA81BB810D91EE
:1005A0001D912D913C910E94571E11F00C94DA027E
:1005B0000C94DC020C9493000895A7980C94CA083C
:1005C0009F9B0C9409035A924A9282E0D2018C9329
:1005D00081E00E941A1B5A924A9201E010E020E04A
:1005E00030E0D2010D931D932D933C9384E00E9443
:1005F0001A1B5A924A9281E0D2018C9381E00E94A8
:100600001A1B0E948200269686E00E9457190C94BD
:10061000E00200E010E020E030E0A8E6B0E00D935A
:100620001D932D933C935A924A9282E0D2018C936F
:1006300081E00E941A1B5A924A9200EE11E020E0DB
:1006400030E0D2010D931D932D933C9384E00E94E2
:100650001A1B5A924A9280E0D2018C9381E00E9448
:100660001A1B0E948200269686E00E9457195A9211
:100670004A9280E0D2018C9381E00E941A1B5A9228
:100680004A92AE81BF810D911D912D913C91D20175
:100690000D931D932D933C9384E00E941A1B5A9254
:1006A0004A9280E0D2018C9381E00E941A1B0E9442
:1006B0005505269686E00E9457199F9B0C94860349
:1006C0005A924A9282E0D2018C9381E00E941A1BD6
:1006D0005A924A9201E010E020E030E0D2010D93FE
:1006E0001D932D933C9384E00E941A1B5A924A92C8
:1006F00081E0D2018C9381E00E941A1B0E9482004B
:10070000269686E00E9457190C945D03A8E6B0E097
:100710000D911D912D913C91AAE7B1E00D931D9390
:100720002D933C935A924A9282E0D2018C9381E0BD
:100730000E941A1B5A924A9200EE11E020E030E02B
:10074000D2010D931D932D933C9384E00E941A1BBC
:100750005A924A9280E0D2018C9381E00E941A1B47
:100760000E948200269686E00E9457195A924A9269
:1007700081E0D2018C9381E00E941A1B5A924A9226
:10078000AC81BD810D911D912D913C91D2010D93B4
:100790001D932D933C9384E00E941A1B5A924A9217
:1007A00080E0D2018C9381E00E941A1B0E945505C3
:1007B000269686E00E9457199F9B0C9405045A9236
:1007C0004A9282E0D2018C9381E00E941A1B5A92D5
:1007D0004A9201E010E020E030E0D2010D931D9339
:1007E0002D933C9384E00E941A1B5A924A9281E016
:1007F000D2018C9381E00E941A1B0E9482002696EF
:1008000086E00E9457190C94DC03A8E6B0E00D9135
:100810001D912D913C91AEE7B1E00D931D932D9369
:100820003C935A924A9282E0D2018C9381E00E94DA
:100830001A1B5A924A9200EE11E020E030E0D201F9
:100840000D931D932D933C9384E00E941A1B5A92A2
:100850004A9280E0D2018C9381E00E941A1B0E9490
:100860008200269686E00E9457195A924A9280E0AA
:10087000D2018C9381E00E941A1B5A924A92AE8157
:10088000BF810D911D912D913C91D2010D931D932E
:100890002D933C9384E00E941A1B5A924A9281E065
:1008A000D2018C9381E00E941A1B0E945505269666
:1008B00086E00E9457199F9B0C9484045A924A9296
:1008C00082E0D2018C9381E00E941A1B5A924A92D4
:1008D00001E010E020E030E0D2010D931D932D9354
:1008E0003C9384E00E941A1B5A924A9281E0D20102
:1008F0008C9381E00E941A1B0E948200269686E05B
:100900000E9457190C945B04A8E6B0E00D911D916C
:100910002D913C91A2E8B1E00D931D932D933C9352
:100920005A924A9282E0D2018C9381E00E941A1B73
:100930005A924A9200EE11E020E030E0D2010D938D
:100940001D932D933C9384E00E941A1B5A924A9265
:1009500080E0D2018C9381E00E941A1B0E948200E9
:10096000269686E00E9457195A924A9281E0D20157
:100970008C9381E00E941A1B5A924A92AC81BD81ED
:100980000D911D912D913C91D2010D931D932D93AD
:100990003C9384E00E941A1B5A924A9281E0D20151
:1009A0008C9381E00E941A1B0E945505269686E0D2
:1009B0000E945719AA81BB810D911D912D913C91E7
:1009C00042E050E060E070E00E94C119A6E8B1E0AA
:1009D0000D931D932D933D93A881B9810D911D9188
:1009E0002D913C9142E050E060E070E00E94C1191E
:1009F000A881B9810D931D932D933D93A6E8B1E095
:100A00000D911D912D913C91A881B9814D915D91E0
:100A10006D917C910E944D1EA6E8B1E00D931D934F
:100A20002D933D93E6E8F1E00E94AF1B0E94D31B9B
:100A3000AAE8B1E00E94051CEAE8F1E00E94D21F9A
:100A4000EDE0F0E0AAE8B1E00E94FA1EEAE8F1E089
:100A50000E94711BA6E8B1E0EDE0FF270E94FA1E9C
:100A6000ECE0F0E40E94AD190E94B419A0E6B5E0F4
:100A7000EAE7F1E00E946D1E0E94A5190E94B419D8
:100A8000A0E6B5E0EEE7F1E00E946D1E0E94A51918
:100A90000E94B419A0E6B5E0E2E8F1E00E946D1E04
:100AA0000E94A5190E94B419089581E090E0A0E584
:100AB000B1E08D939C93AA81BB814D915D916D9125
:100AC0007C91A0E5B1E00D911C91222733270E9473
:100AD000571E1CF011F00C94C3055A924A92AE8135
:100AE000BF818C91D2018C9381E00E941A1B5A9293
:100AF0004A9201E010E020E030E0D2010D931D9316
:100B00002D933C9384E00E941A1B5A924A92AE8124
:100B1000BF818C91D2018C9381E00E941A1B0E94AC
:100B20008200269686E00E9457199F990C94BC0576
:100B30005A924A9282E0D2018C9381E00E941A1B61
:100B40005A924A9200EE11E020E030E0D2010D937B
:100B50001D932D933C9384E00E941A1B5A924A9253
:100B600080E0D2018C9381E00E941A1B0E948200D7
:100B7000269686E00E945719A0E5B1E00E94681908
:100B800010F40C945B0580E090E0A0E5B1E08D935B
:100B90009C93089540E050E060E070E0AA81BB8142
:100BA0000D911D912D913C910E94571E0CF402C095
:100BB0000C94F105AA81BB810D911D912D913C9161
:100BC0004FEF5FEF6FEF7FEF0E943A1BAA81BB816F
:100BD0000D931D932D933D9381E080932D010C94F3
:100BE000160640E050E060E070E0A881B9810D9108
:100BF0001D912D913C910E94571E0CF402C00C9443
:100C00001606A881B9810D911D912D913C914FEF50
:100C10005FEF6FEF7FEF0E943A1BA881B9810D93C0
:100C20001D932D933D9381E080932E015A924A9219
:100C300080E0D2018C9381E00E941A1B5A924A9262
:100C4000A2E7B1E00D911D912D913C91D2010D9340
:100C50001D932D933C9384E00E941A1B5A924A9252
:100C600080912D01D2018C9381E00E941A1B0E9479
:100C70005505269686E00E9457195A924A9281E0BD
:100C8000D2018C9381E00E941A1B5A924A92A6E7E5
:100C9000B1E00D911D912D913C91D2010D931D93C9
:100CA0002D933C9384E00E941A1B5A924A928091A1
:100CB0002E01D2018C9381E00E941A1B0E945505DF
:100CC000269686E00E9457199F9B0C948D065A9297
:100CD0004A9282E0D2018C9381E00E941A1B5A92C0
:100CE0004A9201E010E020E030E0D2010D931D9324
:100CF0002D933C9384E00E941A1B5A924A9281E001
:100D0000D2018C9381E00E941A1B0E9482002696D9
:100D100086E00E9457190C9464060895AA81BB814D
:100D20004D915D916D917C91AC81BD810D911D9135
:100D30002D913C910E94571E11F00C943F07AC81FD
:100D4000BD810D911D912D913C91AA81BB814D9149
:100D50005D916D917C910E943A1BAEE8B1E00D93DC
:100D60001D932D933D93AEE8B1E00D911D912D9112
:100D70003C9142E050E060E070E00E943A1BAEE837
:100D8000B1E00D931D932D933D93EEE8F1E00E94A9
:100D9000AF1B0E94D31BAAE8B1E00E94051CEAE841
:100DA000F1E00E94D21FEDE0F0E0AAE8B1E00E947D
:100DB000FA1EEAE8F1E00E94711BAEE8B1E0EDE056
:100DC000FF270E94FA1EE6E8F1E00E94AF1B0E9496
:100DD000D31B0E940A1C2F933F934F935F93EEE720
:100DE000F1E00E94AF1B0E94D31B5F914F913F9196
:100DF0002F910E94251CEDE0F0E0AAE8B1E00E94EE
:100E0000FA1EEEE8F1E00E94AF1B0E94D31B0E9485
:100E10000A1CEAE8F1E00E94AF1B0E947B1CEDE097
:100E2000F0E0AAE8B1E00E94FA1EEAE8F1E00E94D0
:100E3000C81FEDE0F0E0AAE8B1E00E94FA1EE881E8
:100E4000F9810E94AF1B0E94D31B0E940A1CEAE892
:100E5000F1E00E94AF1B0E94BC1CEDE0F0E0AAE8AC
:100E6000B1E00E94FA1EEAE8F1E00E94711BAE8137
:100E7000BF81EDE0FF270E94FA1E0C94C908AA81E9
:100E8000BB814D915D916D917C91AC81BD810D9146
:100E90001D912D913C910E94571E1CF011F00C9455
:100EA00053070C940508EC81FD810E94AF1B0E9442
:100EB000D31B0E940A1C2F933F934F935F93EAE743
:100EC000F1E00E94AF1B0E94D31B5F914F913F91B5
:100ED0002F910E947B1CEDE0F0E0AAE8B1E00E94B7
:100EE000FA1EE2E7F1E00E94AF1B0E94D31B0E94B2
:100EF0000A1CEAE8F1E00E94AF1B0E94251CEDE00D
:100F0000F0E0AAE8B1E00E94FA1EEEE7F1E00E94EC
:100F1000AF1B0E94D31B0E940A1C2F933F934F9339
:100F20005F93EAE7F1E00E94AF1B0E94D31B5F9141
:100F30004F913F912F910E94AD1CEDE0F0E0A2E9AE
:100F4000B1E00E94FA1EEA81FB810E94AF1B0E9461
:100F5000D31B0E940A1CE2E9F1E00E94AF1B0E9431
:100F60007B1CEDE0F0E0A2E9B1E00E94FA1EE6E7AA
:100F7000F1E00E94AF1B0E94D31B0E940A1CE2E911
:100F8000F1E00E94AF1B0E94251CEDE0F0E0A2E919
:100F9000B1E00E94FA1EE2E9F1E00E94B41BEAE827
:100FA000F1E00E94AF1B0E94AD1CEDE0F0E0AAE86A
:100FB000B1E00E94FA1EEAE8F1E00E94C81FEDE0ED
:100FC000F0E0AAE8B1E00E94FA1EE881F9810E94EF
:100FD000AF1B0E94D31B0E940A1CEAE8F1E00E94AA
:100FE000AF1B0E94BC1CEDE0F0E0AAE8B1E00E945B
:100FF000FA1EEAE8F1E00E94711BAE81BF81EDE0CC
:10100000FF270E94FA1E0C94C908AC81BD814D9146
:101010005D916D917C91AA81BB810D911D912D9166
:101020003C910E94571E1CF011F00C9419080C946E
:10103000C908EA81FB810E94AF1B0E94D31B0E945A
:101040000A1C2F933F934F935F93E2E8F1E00E94D5
:10105000AF1B0E94D31B5F914F913F912F910E9434
:101060007B1CEDE0F0E0AAE8B1E00E94FA1EE6E7A2
:10107000F1E00E94AF1B0E94D31B0E940A1CEAE809
:10108000F1E00E94AF1B0E94251CEDE0F0E0AAE811
:10109000B1E00E94FA1EEEE7F1E00E94AF1B0E9451
:1010A000D31B0E940A1C2F933F934F935F93E2E858
:1010B000F1E00E94AF1B0E94D31B5F914F913F91C3
:1010C0002F910E94AD1CEDE0F0E0A2E9B1E00E949A
:1010D000FA1EEC81FD810E94AF1B0E94D31B0E946F
:1010E0000A1CE2E9F1E00E94AF1B0E947B1CEDE0CC
:1010F000F0E0A2E9B1E00E94FA1EE6E7F1E00E940A
:10110000AF1B0E94D31B0E940A1CE2E9F1E00E947F
:10111000AF1B0E94251CEDE0F0E0A2E9B1E00E94C7
:10112000FA1EE2E9F1E00E94B41BEAE8F1E00E9455
:10113000AF1B0E94AD1CEDE0F0E0AAE8B1E00E9418
:10114000FA1EEAE8F1E00E94C81FEDE0F0E0AAE82C
:10115000B1E00E94FA1EE881F9810E94AF1B0E9453
:10116000D31B0E940A1CEAE8F1E00E94AF1B0E9418
:10117000BC1CEDE0F0E0AAE8B1E00E94FA1EEAE84B
:10118000F1E00E94711BAE81BF81EDE0FF270E945C
:10119000FA1E08950C94D71040E050E060E070E033
:1011A000AC81BD810D911D912D913C910E94571EE6
:1011B0000CF402C00C94E10881E080932D010C94A2
:1011C000E40880E080932D0140E050E060E070E0B2
:1011D000AA81BB810D911D912D913C910E94571EBA
:1011E0000CF402C00C94F90881E080932E010C9459
:1011F000FC0880E080932E0140E050E060E070E069
:10120000A881B9810D911D912D913C910E94571E8D
:101210000CF402C00C94110981E080932F010C940E
:10122000140980E080932F0140E050E060E070E01E
:10123000AC81BD810D911D912D913C910E94571E55
:1012400081E009F080E08F9340E050E060E070E0E2
:10125000AA81BB810D911D912D913C910E94571E39
:1012600081E009F080E09F9189238F9340E050E076
:1012700060E070E0A881B9810D911D912D913C91A4
:101280000E94571E81E009F080E09F918923882306
:1012900011F40C944D090C94B70CAC81BD810D91E7
:1012A0001D912D913C910E94E819AC81BD810D9357
:1012B0001D932D933D93AA81BB810D911D912D917D
:1012C0003C910E94E819AA81BB810D931D932D9337
:1012D0003D93A881B9810D911D912D913C910E9462
:1012E000E819A881B9810D931D932D933D9340E09A
:1012F00050E060E070E0AC81BD810D911D912D91B9
:101300003C910E94571E81E009F080E08F9340E0FD
:1013100050E060E070E0AA81BB810D911D912D919C
:101320003C910E94571E81E009F080E09F91892343
:10133000882311F40C949E090C94900C40E050E02A
:1013400060E070E0AC81BD810D911D912D913C91CB
:101350000E94571E81E009F080E08F9340E050E04A
:1013600060E070E0A881B9810D911D912D913C91B3
:101370000E94571E81E009F080E09F918923882315
:1013800011F40C94C5090C94670C40E050E060E047
:1013900070E0A881B9810D911D912D913C910E9421
:1013A000571E81E009F080E08F9340E050E060E05C
:1013B00070E0AA81BB810D911D912D913C910E94FD
:1013C000571E81E009F080E09F918923882311F462
:1013D0000C94EC090C943E0CAC81BD810D911D91D7
:1013E0002D913C91AC81BD814D915D916D917C9130
:1013F0000E943A1BACE3B1E00D931D932D933D93F6
:10140000AA81BB810D911D912D913C91AA81BB8137
:101410004D915D916D917C910E943A1BA0E4B1E0E9
:101420000D931D932D933D93ACE3B1E00D911D9170
:101430002D913C91A0E4B1E04D915D916D917C9135
:101440000E944D1EACE3B1E00D931D932D933D938F
:10145000A881B9810D911D912D913C91A881B981EF
:101460004D915D916D917C910E943A1BA0E4B1E099
:101470000D931D932D933D93ACE3B1E00D911D9120
:101480002D913C91A0E4B1E04D915D916D917C91E5
:101490000E944D1EACE3B1E00D931D932D933D933F
:1014A000ECE3F1E00E94AF1B0E94D31BA0E3B1E08C
:1014B0000E94051CE0E3F1E00E94D21FEDE0F0E0A5
:1014C000A4E3B1E00E94FA1EE4E3F1E00E94C81F29
:1014D000EDE0F0E00E94711BACE3B1E0EDE0FF272E
:1014E0000E94FA1EA4E3B1E0E8EEFFE30E940A1EA8
:1014F000A0E3B1E0E8EEFFE30E940A1EA8E3B1E03A
:10150000E8EEFFE30E940A1E00E010E020E030E079
:10151000A0E4B1E00D931D932D933C9340E050E087
:1015200060E070E0AC81BD810D911D912D913C91E9
:101530000E94571E1CF011F00C94A00A0C94BE0AD5
:10154000ECE3F1E00E94AF1B0E94D31B0E940A1C37
:101550002F933F934F935F93EC81FD810E94AF1BCC
:101560000E94D31B5F914F913F912F910E94251CA8
:10157000EDE0F0E0A0E3B1E00E94FA1E40E050E0B0
:1015800060E070E0AA81BB810D911D912D913C918D
:101590000E94571E1CF011F00C94D00A0C94EE0A15
:1015A000ECE3F1E00E94AF1B0E94D31B0E940A1CD7
:1015B0002F933F934F935F93EA81FB810E94AF1B70
:1015C0000E94D31B5F914F913F912F910E94251C48
:1015D000EDE0F0E0A4E3B1E00E94FA1E40E050E04C
:1015E00060E070E0A881B9810D911D912D913C9131
:1015F0000E94571E1CF011F00C94000B0C941E0B53
:10160000ECE3F1E00E94AF1B0E94D31B0E940A1C76
:101610002F933F934F935F93E881F9810E94AF1B13
:101620000E94D31B5F914F913F912F910E94251CE7
:10163000EDE0F0E0A8E3B1E00E94FA1E01E010E066
:1016400020E030E0A0E4B1E00D931D932D933C9396
:10165000ACE3B1E04D915D916D917C91A0E4B1E07E
:101660000D911D912D913C910E94571E1CF011F07F
:101670000C943C0CE0E3F1E00E94B41BE4E4F1E0E4
:101680000E94AF1B0E94BC1CEDE0F0E0A4E4B1E0BE
:101690000E94FA1EE4E3F1E00E94B41BE8E4F1E0EA
:1016A0000E94AF1B0E94BC1CEDE0F0E0A8E4B1E09A
:1016B0000E94FA1EE8E3F1E00E94B41BECE4F1E0C2
:1016C0000E94AF1B0E94BC1CEDE0F0E0ACE4B1E076
:1016D0000E94FA1EE4E4F1E00E94AF1BECEEFFE38F
:1016E0000E94171D0E94201D10F40C94AE0B5A92FC
:1016F0004A9280E0D2018C9381E00E941A1B5A9298
:101700004A9201E010E020E030E0D2010D931D93F9
:101710002D933C9384E00E941A1B5A924A92809126
:101720002D01D2018C9381E00E941A1B0E9482003D
:10173000269686E00E945719E0EFFFE30E94171DEE
:10174000E4E4F1E00E94AF1B0E94AD1CEDE0F0E08C
:10175000A4E4B1E00E94FA1E0C946A0BE8E4F1E004
:101760000E94AF1BECEEFFE30E94171D0E94201D9C
:1017700010F40C94F20B5A924A9281E0D2018C93AD
:1017800081E00E941A1B5A924A9201E010E020E088
:1017900030E0D2010D931D932D933C9384E00E9481
:1017A0001A1B5A924A9280912E01D2018C9381E0A9
:1017B0000E941A1B0E948200269686E00E945719FA
:1017C000E0EFFFE30E94171DE8E4F1E00E94AF1B89
:1017D0000E94AD1CEDE0F0E0A8E4B1E00E94FA1E2A
:1017E0000C94AE0BECE4F1E00E94AF1BECEEFFE3D7
:1017F0000E94171D0E94201D10F40C94360C5A9262
:101800004A9282E0D2018C9381E00E941A1B5A9284
:101810004A9201E010E020E030E0D2010D931D93E8
:101820002D933C9384E00E941A1B5A924A92809115
:101830002F01D2018C9381E00E941A1B0E9482002A
:10184000269686E00E945719E0EFFFE30E94171DDD
:10185000ECE4F1E00E94AF1B0E94AD1CEDE0F0E073
:10186000ACE4B1E00E94FA1E0C94F20BA0E4B1E0EB
:101870000E945B190C94280B0C94B70C5A924A9254
:1018800080E0D2018C9381E00E941A1B5A924A9206
:10189000A885B9850D911D912D913C91D2010D9393
:1018A0001D932D933C9384E00E941A1B5A924A92F6
:1018B00080912D01D2018C9381E00E941A1B0E941D
:1018C0008200269686E00E9457190C94B70C5A9213
:1018D0004A9281E0D2018C9381E00E941A1B5A92B5
:1018E0004A92AE81BF810D911D912D913C91D20103
:1018F0000D931D932D933C9384E00E941A1B5A92E2
:101900004A9280912E01D2018C9381E00E941A1B91
:101910000E948200269686E00E9457190C94B70C0C
:101920005A924A9282E0D2018C9381E00E941A1B63
:101930005A924A92AC81BD810D911D912D913C919D
:10194000D2010D931D932D933C9384E00E941A1BAA
:101950005A924A9280912F01D2018C9381E00E9489
:101960001A1B0E948200269686E00E94571908954D
:10197000E4EFFFE30E94171DE881F9810E94AF1B8D
:101980000E947B1CEDE0F0E0A881B9810E94FA1E64
:10199000E881F9810E94C81FEDE0F0E00E94711B10
:1019A000AA81BB81EDE0FF270E94FA1E0895E4EFB3
:1019B000FFE30E94171DE881F9810E94AF1B0E947E
:1019C000D31B0E94251CEDE0F0E0AA81BB810E94A0
:1019D000FA1E089584E00E94141B84E00E94141BE8
:1019E00084E00E94141BAE81BF81E8E1F0E40E9414
:1019F000291F11F00C940A0DA885B9850D911D9130
:101A00002D913C91A885B9850D931D932D933C9301
:101A10000C940A0D8CE0481A80E0580A2696089526
:101A20008AE00E94141BEA81FB810191108149E048
:101A300050E00E94301BEDE8F0E0E00FF11F01E004
:101A4000A881B9810E94001FA881B981ECE1F0E46E
:101A50000E94291F0FB68AE0481A80E0580A229691
:101A60000FBE11F00C946A0D81E0A881B9810D912F
:101A70001C9149E050E00E94301BADE8B0E0A00F9F
:101A8000B11F0E941E1BA881B9810D911C9149E0D4
:101A900050E00E94301BADE8B0E0A00FB11F0E94E3
:101AA000361DEDE0F0E0ACECB0E00E94FA1EA1E2E1
:101AB000B1E0BA93AA93ACECB0E0BA93AA930E94B7
:101AC000B80C24966894A7E1B1E08C9180F98C93CE
:101AD0000C941C0F8AE00E94141BEA81FB81019187
:101AE000108149E050E00E94301BEDE8F0E0E00F8B
:101AF000F11F01E0A881B9810E94001FA881B9816E
:101B0000EEE1F0E40E94291F0FB68AE0481A80E057
:101B1000580A22960FBE11F00C94C40D81E0A881E2
:101B2000B9810D911C9149E050E00E94301BADE855
:101B3000B0E0A00FB11F0E941E1BA881B9810D91BA
:101B40001C9149E050E00E94301BADE8B0E0A00FCE
:101B5000B11F0E94361DEDE0F0E0ACECB0E00E9459
:101B6000FA1EA5E2B1E0BA93AA93ACECB0E0BA9346
:101B7000AA930E94B80C24966894A7E1B1E08C91D6
:101B800081F98C930C941C0F8AE00E94141BEA814B
:101B9000FB810191108149E050E00E94301BEDE88B
:101BA000F0E0E00FF11F01E0A881B9810E94001F61
:101BB000A881B981E0E2F0E40E94291F0FB68AE013
:101BC000481A80E0580A22960FBE11F00C941E0E9F
:101BD00081E0A881B9810D911C9149E050E00E94FB
:101BE000301BADE8B0E0A00FB11F0E941E1BA88102
:101BF000B9810D911C9149E050E00E94301BADE885
:101C0000B0E0A00FB11F0E94361DEDE0F0E0ACEC9B
:101C1000B0E00E94FA1EA9E2B1E0BA93AA93ACEC3C
:101C2000B0E0BA93AA930E94B80C24966894A7E1F6
:101C3000B1E08C9182F98C930C941C0F8AE00E9485
:101C4000141BEA81FB810191108149E050E00E9460
:101C5000301BEDE8F0E0E00FF11F01E0A881B98151
:101C60000E94001FA881B981E2E2F0E40E94291FCE
:101C70000FB68AE0481A80E0580A22960FBE11F08B
:101C80000C948D0E81E0A881B9810D911C9149E0E1
:101C900050E00E94301BADE8B0E0A00FB11F0E94E1
:101CA0001E1BA881B9810D911C9149E050E00E9452
:101CB000301BADE8B0E0A00FB11F0E94361DEDE073
:101CC000F0E0ACECB0E00E94FA1EECECF0E00E9418
:101CD000711BADE0B1E0EDE0FF270E94FA1EEDE0E0
:101CE000F1E00E94AF1B0E94D31B0E940A1CE8EF88
:101CF000FFE30E940E1D0E94251CEDE0F0E0A3E131
:101D0000B1E00E94FA1EE3E1F1E00E94711BA1E143
:101D1000B1E0DD92EC920C941C0F8AE00E94141B3F
:101D2000EA81FB810191108149E050E00E94301B63
:101D3000EDE8F0E0E00FF11F01E0A881B9810E9419
:101D4000001FA881B981E4E2F0E40E94291F0FB6C8
:101D50008AE0481A80E0580A22960FBE11F00C94CF
:101D60001C0F81E0A881B9810D911C9149E050E0E0
:101D70000E94301BADE8B0E0A00FB11F0E941E1BF7
:101D8000A881B9810D911C9149E050E00E94301B5F
:101D9000ADE8B0E0A00FB11F0E94361DEDE0F0E00D
:101DA000ACECB0E00E94FA1EECECF0E00E94711B7B
:101DB000ACE1B1E0EDE0FF270E94FA1EECE1F1E0BA
:101DC0000E94AF1B0E94D31B0E940A1CECEFFFE392
:101DD0000E940E1D0E947B1CEDE0F0E0A3E1B1E04B
:101DE0000E94FA1EE3E1F1E00E94B41BE0E0F0E49F
:101DF0000E940E1D0E94251CEDE0F0E0A3E1B1E081
:101E00000E94FA1EE4E0F0E40E94171DE3E1F1E015
:101E10000E94AF1B0E947B1CEDE0F0E0A3E1B1E06B
:101E20000E94FA1EE3E1F1E00E94711BACE1B1E017
:101E3000EDE0FF270E94FA1E08958AE00E94141B1D
:101E4000EA81FB810191108149E050E00E94301B42
:101E5000EDE8F0E0E00FF11F01E0A881B9810E94F8
:101E6000001FA881B981E6E2F0E40E94291F0FB6A5
:101E70008AE0481A80E0580A22960FBE11F00C94AE
:101E8000770F81E0A881B9810D911C9149E050E064
:101E90000E94301BADE8B0E0A00FB11F0E941E1BD6
:101EA000A881B9810D911C9149E050E00E94301B3E
:101EB000ADE8B0E0A00FB11F0E94361DEDE0F0E0EC
:101EC000ACECB0E00E94FA1EAEE5B1E0BA93AA9382
:101ED000ACECB0E0BA93AA930E94B80C2496689434
:101EE000A7E1B1E08C9183F98C930C94D6108AE031
:101EF0000E94141BEA81FB810191108149E050E0AE
:101F00000E94301BEDE8F0E0E00FF11F01E0A88136
:101F1000B9810E94001FA881B981E8E2F0E40E9423
:101F2000291F0FB68AE0481A80E0580A22960FBE91
:101F300011F00C94D10F81E0A881B9810D911C9111
:101F400049E050E00E94301BADE8B0E0A00FB11FA7
:101F50000E941E1BA881B9810D911C9149E050E09F
:101F60000E94301BADE8B0E0A00FB11F0E94361DEB
:101F7000EDE0F0E0ACECB0E00E94FA1EA2E6B1E0C9
:101F8000BA93AA93ACECB0E0BA93AA930E94B80CAF
:101F900024966894A7E1B1E08C9184F98C930C9419
:101FA000D6108AE00E94141BEA81FB810191108106
:101FB00049E050E00E94301BEDE8F0E0E00FF11F37
:101FC00001E0A881B9810E94001FA881B981EAE2DD
:101FD000F0E40E94291F0FB68AE0481A80E0580AF0
:101FE00022960FBE11F00C942B1081E0A881B981CC
:101FF0000D911C9149E050E00E94301BADE8B0E02B
:10200000A00FB11F0E941E1BA881B9810D911C91C8
:1020100049E050E00E94301BADE8B0E0A00FB11FD6
:102020000E94361DEDE0F0E0ACECB0E00E94FA1E3C
:10203000A8E1B1E0BA93AA93ACECB0E0BA93AA934A
:102040000E94B80C24966894A7E1B1E08C9186F9BF
:102050008C930C94D6108AE00E94141BEA81FB81B9
:102060000191108149E050E00E94301BEDE8F0E062
:10207000E00FF11F01E0A881B9810E94001FA88133
:10208000B981ECE2F0E40E94291F0FB68AE0481AF9
:1020900080E0580A22960FBE11F00C94851081E062
:1020A000A881B9810D911C9149E050E00E94301B3C
:1020B000ADE8B0E0A00FB11F0E941E1BA881B9813E
:1020C0000D911C9149E050E00E94301BADE8B0E05A
:1020D000A00FB11F0E94361DEDE0F0E0ACECB0E0C7
:1020E0000E94FA1EA2E5B1E0BA93AA93ACECB0E06C
:1020F000BA93AA930E94B80C24966894A7E1B1E021
:102100008C9187F98C930C94D6108AE00E94141B52
:10211000EA81FB810191108149E050E00E94301B6F
:10212000EDE8F0E0E00FF11F01E0A881B9810E9425
:10213000001FA881B981E2E2F0E40E94291F0FB6D6
:102140008AE0481A80E0580A22960FBE11F00C94DB
:10215000D61081E0A881B9810D911C9149E050E031
:102160000E94301BADE8B0E0A00FB11F0E941E1B03
:10217000A881B9810D911C9149E050E00E94301B6B
:10218000ADE8B0E0A00FB11F0E94361DEDE0F0E019
:10219000ACECB0E00E94FA1EECECF0E00E94711B87
:1021A000ADE0B1E0EDE0FF270E94FA1E08950C9427
:1021B000DB17E881F98190E208E036E0A6E9B0E0BB
:1021C0000E943F1FA0E5B1E02D9388278C9380E00B
:1021D00090E0A0E5B1E08D939C93E6E9F0E0ADE8F6
:1021E000B0E00E94F51EADE8B0E0EEE2F0E40E943F
:1021F000291F11F00C940911AC9AAD9879B770624F
:1022000079BFE2E3F0E40E94AD190E94B4190C9486
:102210003413ADE8B0E0E4E3F0E40E94291F11F0CC
:102220000C941F11AD9AAC9879B7706279BFE2E354
:10223000F0E40E94AD190E94B4190C943413ADE877
:10224000B0E0E8E3F0E40E94291F11F00C9435118E
:10225000AC98AD9879B77F7D79BFE2E3F0E40E9456
:10226000AD190E94B4190C943413ADE8B0E0ECE35E
:10227000F0E40E94291F11F00C946B1182E090E0B1
:10228000A0E5B1E08D939C9382E090E0A0E5B1E001
:102290008D939C93A0E5B1E00D911C91063050E028
:1022A000150718F011F00C946311A0E5B1E0BA9392
:1022B000AA930E941D0F2296A0E5B1E00E94681922
:1022C00010F40C944A11A8E1B1E08D919C910E9408
:1022D0000B1A0C943413ADE8B0E0E8E1F0E40E948E
:1022E000291F81E009F080E08F93ADE8B0E0E0E4E1
:1022F000F0E40E94291F81E009F080E09F91892B82
:10230000882311F40C94D91182E090E0A0E5B1E0AB
:102310008D939C9382E090E0A0E5B1E08D939C9337
:10232000A0E5B1E00D911C91063050E0150718F0C2
:1023300011F00C94B011A0E5B1E0BA93AA930E94F9
:10234000100D2296A0E5B1E0BA93AA930E941D0F4A
:102350002296A0E5B1E00E94681910F40C94901147
:1023600080E090E0A0E5B1E08D939C93A1E2B1E024
:10237000BA93AA93A5E2B1E0BA93AA93AEE5B1E00D
:10238000BA93AA93A2E6B1E0BA93AA93A2E5B1E008
:10239000BA93AA93ADE8B0E0BA93AA930E94EA0C6C
:1023A0002C96E2E3F0E40E94AD190E94B4190C945B
:1023B0003413ADE8B0E0E4E4F0E40E94291F11F02A
:1023C0000C94EF117091DE0072607093DE00E2E316
:1023D000F0E40E94AD190E94B4190C943413ADE8D6
:1023E000B0E0E8E4F0E40E94291F11F00C942312FD
:1023F0007091DE007D7F7093DE0000E010E020E051
:1024000030E0A0E6B0E00D931D932D933C9300E0E7
:1024100010E020E030E0A4E6B0E00D931D932D9392
:102420003C9300E010E020E030E0A8E6B0E00D933F
:102430001D932D933C93E2E3F0E40E94AD190E94BA
:10244000B4190C943413ADE8B0E0ECE4F0E40E946D
:10245000291F81E009F080E08F93ADE8B0E0E0E56E
:10246000F0E40E94291F81E009F080E09F91892B10
:10247000882311F40C94341382E090E0A0E5B1E0DD
:102480008D939C9382E090E0A0E5B1E08D939C93C6
:10249000A0E5B1E00D911C91063050E0150718F051
:1024A00011F00C946112A0E5B1E0BA93AA930E94D6
:1024B000100D2296A0E5B1E00E94681910F40C946A
:1024C000481280E090E0A0E5B1E08D939C93ADE8E8
:1024D000B0E0ECE4F0E40E94291F11F00C947712B4
:1024E00070910C01706870930C010C947C127091C7
:1024F0000C017F7770930C01AEEDB0E08C9181FB05
:1025000016F00C94D412A7E1B1E00C9100FB16F088
:102510000C949E12A1E2B1E00D911D912D913C9180
:10252000A0E6B0E04D915D916D917C910E94521EAC
:10253000A1E2B1E00D931D932D933D93A7E1B1E08E
:102540000C9101FB16F00C94B912A5E2B1E00D91CB
:102550001D912D913C91A4E6B0E04D915D916D915E
:102560007C910E94521EA5E2B1E00D931D932D9324
:102570003D93A7E1B1E00C9102FB16F00C94D4124C
:10258000A9E2B1E00D911D912D913C91A8E6B0E03A
:102590004D915D916D917C910E94521EA9E2B1E036
:1025A0000D931D932D933D93AEEDB0E08C9180FB88
:1025B00016F00C941513A9E2B1E0BA93AA935A92BB
:1025C0004A92A1E2B1E00D911D912D913C91D20171
:1025D0000D931D932D933C9384E00E941A1B5A92F5
:1025E0004A92A5E2B1E00D911D912D913C91D2014D
:1025F0000D931D932D933C9384E00E941A1B5A92D5
:102600004A92A9E2B1E00D911D912D913C91D20128
:102610000D931D932D933C9384E00E941A1B0E94FE
:102620008E0628968CE00E945719A0E6B5E0E9E2F4
:10263000F1E00E946D1E0E94A5190E94B419A1E24A
:10264000B1E0BA93AA93A5E2B1E0BA93AA93A9E242
:10265000B1E0BA93AA930E94CC082696E2E3F0E494
:102660000E94AD190E94B419ADE8B0E0E4E5F0E4D1
:102670000E94291F11F00C944A137091DE007068BB
:102680007093DE00E2E3F0E40E94AD190E94B419F9
:102690000C949617ADE8B0E0EAE5F0E40E94291F3B
:1026A00011F00C9460137091DE007F777093DE0060
:1026B000E2E3F0E40E94AD190E94B4190C9496175D
:1026C000ADE8B0E0E2E6F0E40E94291F11F00C94BE
:1026D000C213A6E5B1E0BA93AA93A0E6B0E0BA931C
:1026E000AA930E94D70C2496EAE6F0E40E94AD1962
:1026F000A0E6B5E0E6E5F1E00E94AF1B0E941A1AE1
:102700000E94A5190E94B419A6E5B1E0BA93AA9354
:10271000A4E6B0E0BA93AA930E94D70C2496EEE602
:10272000F0E40E94AD19A0E6B5E0E6E5F1E00E9414
:10273000AF1B0E941A1A0E94A5190E94B419A6E59F
:10274000B1E0BA93AA93A8E6B0E0BA93AA930E9424
:10275000D70C2496E2E7F0E40E94AD19A0E6B5E0BC
:10276000E6E5F1E00E94AF1B0E941A1A0E94A5192B
:102770000E94B419E2E3F0E40E94AD190E94B4197A
:102780000C949617ADE8B0E0E6E7F0E40E94291F4C
:1027900011F00C940B14E6E4F0E0D190E080FF24FB
:1027A00000270E94D31BA3E1B1E00E94051CE3E1D6
:1027B000F1E00E94B41BE8EFFFE30E940E1D0E94AF
:1027C000251CEDE0F0E0A3E1B1E00E94FA1EE8E094
:1027D000F0E40E94171DE3E1F1E00E94AF1B0E94AC
:1027E0007B1CEDE0F0E0A3E1B1E00E94FA1EA0E660
:1027F000B5E0E3E1F1E00E94AF1B0E941A1A0E94CB
:10280000A5190E94B419E2E3F0E40E94AD190E94F8
:10281000B4190C949617ADE8B0E0EEE7F0E40E942E
:10282000291F11F00C94801482E090E0A0E5B1E043
:102830008D939C9382E090E0A0E5B1E08D939C9312
:10284000A0E5B1E00D911C91063050E0150718F09D
:1028500011F00C943914A0E5B1E0BA93AA930E9448
:10286000100D2296A0E5B1E00E94681910F40C94B6
:10287000201480E090E0A0E5B1E08D939C93A7E167
:10288000B1E00C9100FB16F00C945214A1E2B1E0FF
:102890000D911D912D913C91A0E6B0E00D931D93FB
:1028A0002D933C93A7E1B1E00C9101FB16F00C9441
:1028B0006514A5E2B1E00D911D912D913C91A4E626
:1028C000B0E00D931D932D933C93A7E1B1E00C91E3
:1028D00002FB16F00C947814A9E2B1E00D911D9161
:1028E0002D913C91A8E6B0E00D931D932D933C9360
:1028F000E2E3F0E40E94AD190E94B4190C9496171B
:10290000ADE8B0E0E6E8F0E40E94291F11F00C9475
:102910009D14D898D998DA98DB98DC98DD98DE98E1
:10292000DF98A898A998AA98AB98E2E3F0E40E94EF
:10293000AD190E94B4190C949617ADE8B0E0EAE81E
:10294000F0E40E94291F11F00C94CC1400E010E078
:1029500020E030E0A0E6B0E00D931D932D933C9372
:1029600000E010E020E030E0A4E6B0E00D931D931D
:102970002D933C9300E010E020E030E0A8E6B0E0CA
:102980000D931D932D933C93E2E3F0E40E94AD1967
:102990000E94B4190C949617ADE8B0E0E2E9F0E4B7
:1029A0000E94291F11F00C94DE14AE9AE2E3F0E4C9
:1029B0000E94AD190E94B4190C949617ADE8B0E0CE
:1029C000E8E9F0E40E94291F11F00C94F014AE988D
:1029D000E2E3F0E40E94AD190E94B4190C9496173A
:1029E000ADE8B0E0E0EAF0E40E94291F11F00C9499
:1029F0004F15E8EAF0E40E94AD190E94B419E2EC28
:102A0000F0E40E94AD190E94B419E0EDF0E40E94D8
:102A1000AD190E94B419E0EEF0E40E94AD190E94D5
:102A2000B419E2EEF0E40E94AD190E94B419EAEF85
:102A3000F0E40E94AD190E94B419EEE1F1E40E94A5
:102A4000AD190E94B419ECE3F1E40E94AD190E94A3
:102A5000B419EEE5F1E40E94AD190E94B419E0E961
:102A6000F1E40E94AD190E94B419ECECF1E40E946B
:102A7000AD190E94B419ECEEF1E40E94AD190E9468
:102A8000B419ECE2F2E40E94AD190E94B419E2E339
:102A9000F0E40E94AD190E94B4190C949617ADE8A9
:102AA000B0E0E2E7F2E40E94291F11F00C947815DF
:102AB000E0E0F0E0A0E6B0E094E07BE70E94111FC8
:102AC000E4E0F0E0A4E6B0E094E07BE70E94111FB0
:102AD000E8E0F0E0A8E6B0E094E07BE70E94111F98
:102AE000E2E3F0E40E94AD190E94B4190C94961729
:102AF000ADE8B0E0EAE7F2E40E94291F11F00C947F
:102B00008C1581E080932001E2E3F0E40E94AD198E
:102B10000E94B4190C949617ADE8B0E0E2E8F2E434
:102B20000E94291F11F00C94A01580E080932001D1
:102B3000E2E3F0E40E94AD190E94B4190C949617D8
:102B4000ADE8B0E0E8E8F2E40E94291F11F00C942F
:102B5000231670910C01706870930C0182E090E074
:102B6000A0E5B1E08D939C9382E090E0A0E5B1E018
:102B70008D939C93A0E5B1E00D911C91063050E03F
:102B8000150718F011F00C94D315A0E5B1E0BA9335
:102B9000AA930E94100D2296A0E5B1E00E94681948
:102BA00010F40C94BA1580E090E0A0E5B1E08D93AC
:102BB0009C93A1E2B1E00D911D912D913C91A2E772
:102BC000B1E00D931D932D933C93A5E2B1E00D91DF
:102BD0001D912D913C91A6E7B1E00D931D932D938E
:102BE0003C935A924A92A1E2B1E00D911D912D9130
:102BF0003C91D2010D931D932D933C9384E00E9450
:102C00001A1B5A924A92A5E2B1E00D911D912D91A5
:102C10003C91D2010D931D932D933C9384E00E942F
:102C20001A1B0E94E002249688E00E945719E1E0F6
:102C3000F0E00E94BB19E2E3F0E40E94AD190E94AB
:102C4000B4190C949617ADE8B0E0E0E9F2E40E9404
:102C5000291F11F00C9439167091DE007160709389
:102C6000DE00E2E3F0E40E94AD190E94B4190C9476
:102C70009617ADE8B0E0E6E9F2E40E94291F11F0F2
:102C80000C944F167091DE007E7F7093DE00E2E3BD
:102C9000F0E40E94AD190E94B4190C949617ADE8A7
:102CA000B0E0EEE9F2E40E94291F11F00C94C01686
:102CB00070910C01706870930C0182E090E0A0E5C7
:102CC000B1E08D939C9382E090E0A0E5B1E08D931C
:102CD0009C93A0E5B1E00D911C91063050E01507E2
:102CE00018F011F00C948216A0E5B1E0BA93AA9303
:102CF0000E94100D2296A0E5B1E00E94681910F420
:102D00000C94691680E090E0A0E5B1E08D939C936F
:102D10005A924A92A1E2B1E00D911D912D913C9100
:102D2000D2010D931D932D933C9384E00E941A1BB6
:102D30005A924A92A5E2B1E00D911D912D913C91DC
:102D4000D2010D931D932D933C9384E00E941A1B96
:102D50000E94CA05249688E00E945719A0E6B5E0B3
:102D6000E8E6F0E00E946D1E0E94A5190E94B419C9
:102D7000E2E3F0E40E94AD190E94B4190C94961796
:102D8000ADE8B0E0E4EAF2E40E94291F11F00C94EF
:102D9000161770910C01706870930C01AFE9B0E0E8
:102DA0000E94C31EADE2B1E00C93A8EAB0E00E941D
:102DB000C31EA5EDB0E00C93A1EBB0E00E94C31ED2
:102DC000A6EDB0E00D931D932D933D935A924A9238
:102DD0008091D500D2018C9381E00E941A1B5A92F7
:102DE0004A92A6EDB0E00D911D912D913C91D2013A
:102DF0000D931D932D933C9384E00E941A1B5A92CD
:102E00004A9280912D01D2018C9381E00E941A1B7D
:102E10000E948200269686E00E945719E2E3F0E4C1
:102E20000E94AD190E94B4190C949617ADE8B0E059
:102E3000EAEAF2E40E94291F11F00C945117E2EB28
:102E4000F2E40E94AD190E94B419EEEBF2E40E9484
:102E5000AD190E94B419E8ECF2E40E94AD190E9489
:102E6000B419E0EEF2E40E94AD190E94B419E0E951
:102E7000F2E40E94AD190E94B419E6E9F2E40E945E
:102E8000AD190E94B419EEEEF2E40E94AD190E9451
:102E9000B419E8E0F3E40E94AD190E94B4190C944F
:102EA0009617ADE8B0E0E2E2F3E40E94291F11F0CA
:102EB0000C949617A0E6B5E0EAE7F1E00E946D1EDB
:102EC0000E94A5190E94B419A0E6B5E0EEE7F1E072
:102ED0000E946D1E0E94A5190E94B419A0E6B5E0DB
:102EE000E2E8F1E00E946D1E0E94A5190E94B4194B
:102EF000A0E6B5E0E2E7F1E00E946D1E0E94A51990
:102F00000E94B419A0E6B5E0E6E7F1E00E946D1E6C
:102F10000E94A5190E94B419A0E6B5E0E6E8F1E028
:102F20000E946D1E0E94A5190E94B41900E010E0D5
:102F300020E030E0A1E2B1E00D931D932D933C938E
:102F400000E010E020E030E0A5E2B1E00D931D9339
:102F50002D933C9300E010E020E030E0A9E2B1E0E6
:102F60000D931D932D933C9300E010E020E030E0A2
:102F7000A2E5B1E00D931D932D933C9300E010E08A
:102F800020E030E0AEE5B1E00D931D932D933C932E
:102F900000E010E020E030E0A2E6B1E00D931D93E8
:102FA0002D933C9380E08093170170910C017F7703
:102FB00070930C0108957091DE0071607093DE00D3
:102FC000E0E0F0E0A0E6B0E094E00E94221FE4E040
:102FD000F0E0A4E6B0E094E00E94221FE8E0F0E018
:102FE000A8E6B0E094E00E94221F02E210E020E098
:102FF00030E0AAE7B1E00D931D932D933C9309E1D6
:1030000010E020E030E0AEE7B1E00D931D932D938A
:103010003C9309ED1FEF2FEF3FEFA2E8B1E00D93D6
:103020001D932D933C9300E815E220E030E0A2E7E9
:10303000B1E00D931D932D933C9300E815E220E041
:1030400030E0A6E7B1E00D931D932D933C9308E08B
:1030500015E320E030E0A6E8B1E00D931D932D9339
:103060003C9308EB1BE020E030E0ADE0B1E00D93D5
:103070001D932D933C9305E31CE020E030E0ACE190
:10308000B1E00D931D932D933C93579AEAE2F3E43C
:103090000E94AD190E94B419AEEDB0E08C9186FB90
:1030A00016F00C948C18F894AEEAB1E00E94441E1D
:1030B0008DE0ACE6B0E00E94281BAEEDB0E08C9154
:1030C00087FB16F00C946A18ACE6B0E00E94A719D2
:1030D0000E94B419ACE6B0E0BA93AA930E94D9104A
:1030E000229600912001013011F00C947B18A898D1
:1030F000A998AA98AB98ACE6B0E088278C93709119
:10310000DE007F7B7093DE00E0E3F3E40E94AD1904
:103110000E94B4197894939882E390E00E940B1A6D
:103120000C944C18F894FFCF0F921F922F923F925D
:103130004F925F927F92AF92BF920F931F932F9304
:103140003F934F935F936F937F938F939F93AF932F
:10315000BF93CF93DF93EF93FF938FB78F93A6E443
:10316000B0E04D915C91A1E1B1E00D911C9104178B
:10317000150780E010F009F081E08F93AAE4B0E039
:103180000D911C910A3A50E0150780E010F009F00B
:1031900081E09F918923882311F40C94D918AAE423
:1031A000B0E00D911C9145E050E0040F151F1BBDD0
:1031B0000ABDA6E4B0E04D915C91A1E1B1E00D91B2
:1031C0001C910417150781E008F080E08F93AAE4B2
:1031D000B0E00D911C91083E53E0150781E008F026
:1031E00080E09F918923882311F40C940119AAE4AB
:1031F000B0E00D911C9145E050E0041B150B1BBD88
:103200000ABD8F918FBFFF91EF91DF91CF91BF9159
:10321000AF919F918F917F916F915F914F913F916E
:103220002F911F910F91BF90AF907F905F904F9023
:103230003F902F901F900F90189581E08093FF0092
:10324000939A81E08093FF004091B0010091FF00CC
:10325000041718F011F00C944B19AFEFB0E0AD90DB
:10326000BB24A5E9B1E0AA0DBB1D8C91A0EDB0E097
:103270008D9388278C93E0EDF0E0ACE6B0E00E94FF
:103280009E190E94F51EAFEFB0E08C918F5F8C937A
:1032900010F40C94241980E08093FF007091DE00FC
:1032A00070647093DE000895481A590A0895481A08
:1032B0008827580A08950D911D912D913C910F5F1B
:1032C0001F4F2F4F3F4F3C932E931E930E93089505
:1032D000ED91FC91EF5FFF4FFC93EE9308950D91FC
:1032E0001D912D913C9101501040204030403C9365
:1032F0002E931E930E93089505D00E94301B00FC60
:103300000CD008950024E89457FF02C009D06894B7
:1033100000F80BD010F80124089502D009D00895C8
:10332000509540954F5F5F4F0895E89417FF0895BB
:10333000009510950F5F1F4F689408958F938D919E
:103340008823E9F711978F910895A0E6B5E08D9154
:10335000882311F00CD0FBCF08950E940A1D802D08
:1033600011F005D0FACF08958DE001D08AE05D9B81
:10337000FECF8CB9089588EE93E04DD03197D9F700
:1033800008951FD0C9F0002E112E222E332E415049
:1033900050406040704015D009F408954F935F93FA
:1033A0006F937F93402D512D622D732D63D17F91AB
:1033B0006F915F914F91EBCF01E0112722273327C7
:1033C00008958827842B852B862B872B80300895A2
:1033D00037FF089500951095209530950F5F1F4F8A
:1033E0002F4F3F4F08953197F1F7089500000000E7
:1033F00000000000000000000000000000000000CD
:1034000000000000319791F70895689462F80895DC
:10341000E89462F80895EF93FF93EE27E82BE92BE9
:1034200031F0E0EAFFE03197F1F70197D1F7FF9132
:10343000EF9108958DE207FD8D938F2D881F802FCA
:10344000881F8F57082F6894F7F8802F87FF15C0C3
:1034500080958395082F80E38D938EE28D93802F46
:10346000815228F080E38D9399279C9308954427F7
:103470000A95802F09F196D01FC0805230F09EE44B
:103480009D9381E48D939D93EFCF4427DF92EF923C
:10349000FF920F938FE1801B11F0082F83D089D00A
:1034A0009EE29D930F91FF90EF90DF90442703954C
:1034B000003209F4D7CF2BD03F93E4E4F5E338E1B1
:1034C0002F2D1E2D0D2DFF24EE24DD244427000F6B
:1034D000111F221FA8F42F923F920E940A1D102C48
:1034E0000E940A1D202C0E940A1D302C0E940A1DD9
:1034F0003197410DD21CE31CF01C3F902F9001C06E
:10350000339631963A9519F73F9107D0AFCFDD0C3E
:10351000EE1CFF1C0A95D9F70895002719E058D032
:103520008F93802B11F0039501C08F911A95B9F7F5
:10353000802F882309F496CF8F91805D8D930A9513
:10354000D9F792CF0065CD1D80B2E60E40597307C2
:10355000A0ACB90350D6DC01286BEE00943577009F
:10356000CA9A3B0065CD1D00B2E60E0059730700F4
:10357000ACB90300D6DC01006BEE0000357700002B
:103580009A3B0000CD1D0000E60E0000730700000E
:10359000B9030000DC010000EE000000770000002D
:1035A0003B000000F694E794D79447950A95D1F72D
:1035B000089500270DD08F9303958F2D8E298D2987
:1035C000842BC1F78F91805D8D930A95D9F74CCFED
:1035D0001F930F93002710E2440FDD1CEE1CFF1C0D
:1035E000001F802F9AE0890B10F0082F43951A9541
:1035F00099F7802F0F911F9108952093B501309373
:10360000B6014093B7015093B80108952091B501D8
:103610003091B6014091B7015091B80108955A9286
:103620004A92480E591E08955A924A92480E882787
:10363000581E0895480E8827581E0895FD0100273A
:1036400003959D91081709F091939923C9F708955F
:10365000FD019D91981709F091939923D1F7089551
:103660000F92B801469F8001479F100D569F100D85
:103670000F9008950F921F922F92C801D901489F71
:1036800080014A9F90014B9F202C499F100D211DC6
:10369000321D5A9F202C589F100D211D321D599FFD
:1036A000200D311D689F200D311D699F300D789FC1
:1036B000300D2F901F900F900895903039F08C911D
:1036C000880F08F481609A95D9F78C93089590300B
:1036D00039F08C91869508F480689A95D9F78C9387
:1036E00008953DD0992711278F2D880F80E8F82A5B
:1036F000802F881F08F41FEF41F08F57082F07FD18
:1037000004C0003240F08FEF01C08827982FD82ED8
:10371000E82EF82E09C08FE1801B082FF694E7945D
:10372000D79497950A95D1F7112351F09095D0949D
:10373000E094F09481E0980F8827D81EE81EF81EC8
:103740000F2DFE2CED2CD92E0895D094E094F094FA
:1037500091E0D90E9927E91EF91E10950895D19090
:10376000E190F19001910895219131914191519110
:103770000895102F90E8FF0C001F0927990FF79468
:103780001078652F90E8440F551F5927990F4795DA
:10379000607800380895FF0C90E89027110F9795F6
:1037A000F794092F0895102FBD2CDE2CEF2CF02E4E
:1037B00011234AF4B094D094E094F0949FEFB91A96
:1037C000D90AE90AF90A0EE1FF2039F4FE2CED2CA2
:1037D000DB2CBB240850C2F76CC032F00A95BB0C3E
:1037E000DD1CEE1CFF1CF9CF0E94F71BD4CFB7FEE7
:1037F000089590E8B91611F4D0FE08959FEFD91AF4
:10380000E90AF90A09F403950895DD92ED92FD9213
:103810000C930895502F2D2D3E2D4F2D612F08957F
:103820002DEC3CEC4CEC5DE366270FC098DFF2DF3B
:10383000DD24EE2490E8F92E0FE307C095DF05C0E4
:103840002227332740E251E46627552351F1002314
:1038500081F18FDF71F11627005850580894050B3D
:1038600018F407FD03C025C007FD23C04695379512
:103870002795F694E794D79422D0FF202AF0DD0C08
:10388000EE1CFF1C015073F09D2D969548F0DD2035
:103890003AF4EE202AF491E0D90E9927E91EF91E98
:1038A0007ACF07C09FE7092FF92A9FEFD92EE92E7B
:1038B0000895DD24EE24FF240027112708959F9208
:1038C0009924AA24BB2488E1D216E306F40628F042
:1038D000D21AE30AF40A089401C08894991CAA1C1D
:1038E000BB1CDD0CEE1CFF1C8A9571F7D92CEA2C51
:1038F000FB2C9F9008953DDFE1F25038D1F216275E
:10390000005850580894051F12F418F4CBCF08F053
:10391000D0CF0BD0FF202AF0BB0CDD1CEE1CFF1C0F
:103920003ACF0F5F0BF4BECF36CF9F929924AA24D3
:10393000BB24992788E1990CAA1CBB1CDD1CEE1C3A
:10394000FF1C30F4920EA31EB41ED91EE91EF91EF0
:103950008A9589F79F90089507DF0BDF503829F08B
:1039600090E869270CC00AF045D015CF5FE3222705
:103970003327442701C0F8DEFCDE5038B1F30038AD
:1039800099F3902F951B8BF312F434D0FACF983122
:1039900018F0222733274427983028F0232F342F7C
:1039A00044279850F9CF992329F0469537952795C4
:1039B0009A95D9F7912F962742F014D0B0F6F79444
:1039C000E794D7940F5F8BF66DCF10D051F008F4C9
:1039D000BCDEFF2052F2DD0CEE1CFF1C0150CBF7C9
:1039E00061CF67CFD20EE31EF41E0895D21AE30A08
:1039F000F40A0895DF92EF92FF920F931F93D22E55
:103A0000E32EF42E052F162F6F915F914F913F916A
:103A10002F910895C895319600200895FBDFD02C92
:103A2000F9DFE02CF7DFF02CF5DF002D0895F2DF51
:103A3000202DF0DF302DEEDF402DECDF502D0895EE
:103A400007FB00680EF40F7757FB50680EF45F77A2
:103A500007FD02C057FF05C0D216E306F4060507AE
:103A600008952D153E054F05500708950E94081A28
:103A7000E89488278A938A931CDF11278D918032DE
:103A8000E9F31197BBD098F08D3229F41095119677
:103A90008C91B4D060F08E3229F411968C91AED016
:103AA00008F446C022960E94051A81E008958C9180
:103AB000A5D0D8F547D01196D0F703958D919ED01B
:103AC000E0F38E3229F48C9199D010F41196FBCF4B
:103AD000853419F0853609F055C011968C918ED039
:103AE00060F08D3219F08B3221F0DCCF0880009429
:103AF000088211968C9182D0A8F680538983119602
:103B00008C917CD058F49981990F990F0980900D70
:103B1000990F8053890F8983873220F68981988194
:103B200099230AF48195080F2DC08E3289F61196DB
:103B30008C9164D068F606D018F011960A95F8CFEB
:103B40001196C1CF4F2D3E2D2D2DDD0CEE1CFF1CEF
:103B5000A8F0DD0CEE1CFF1C88F0D20EE31EF41E54
:103B600068F0DD0CEE1CFF1C48F0805309F06894EF
:103B7000D80E8827E81EF81E08F00895F42EE32ECC
:103B8000D22E089534D019F116F5098308E921D011
:103B90000695882787959F2D9F77980FF92E0150BE
:103BA000000F110F07958981882379F01AF4819508
:103BB000898306C035DE89818A958983D9F705C056
:103BC0003FDE89818A958983D9F72296089571DE2F
:103BD000FCCF0DD041F0FF2032F00A9531F0DD0C22
:103BE000EE1CFF1CD2F788940895089408950024D1
:103BF0000D280E280F28002A00200895803320F079
:103C00008A3310F4089408958894089591E005C0CB
:103C100092E003C094E001C098E0FCDE0D929A951A
:103C2000E1F708957F930F93AF93BF938F939F9383
:103C30008FB78F93E8948091B00108E1081B21F4BD
:103C40009CB10E94051A13C00091AF01A6E9B1E032
:103C500077279CB1A00FB71F9C936894839580939E
:103C6000B0010395083109F400270093AF019D309E
:103C700011F40E941D198F918FBF9F918F91BF9159
:103C8000AF910F917F9118956FB7F894882793E0C3
:103C90008D939A95E9F76FBF0895040F151F261F9E
:103CA000371F0895041B150B260B370B08950417B7
:103CB0001507260737070895000F111F221F331F0E
:103CC000089500951095209530950F5F1F4F2F4F49
:103CD0003F4F0895019110810EC0019111912191E2
:103CE00030810BC00191108117FF05C03FEF2FEF0E
:103CF00004C0008111272227332737FF03C0E1DFEB
:103D00008DE28D93CF93DF93CF92DF92EF92AA242F
:103D1000BB24CC24DD24EE2440E2CAE0DD2755E0BC
:103D200093E38881890F87FD9F7083FD907F891BB6
:103D300089935A95A9F7C0DFAA1CBB1CCC1CDD1CBB
:103D4000EE1C4A9551F7E894EFE0FF2782910ED0E0
:103D5000EB30E0F71EF068948A2D0CD088278D9305
:103D6000EF90DF90CF90DF91CF910895982F8295BB
:103D700001D0892F8F70805D26F0803309F408957B
:103D800068948D93089500271127222733271DD08B
:103D90008A3328F4803318F005D015D0F9CF0EF40B
:103DA00090CF089580538F93402F512F622F732F00
:103DB00083DF82DF72DF80DF8F919927080F191F61
:103DC000291F391F08958D910895E894FCDF8032F2
:103DD000E9F38B32D9F38930C9F38D3211F4689449
:103DE000F2CF089588278D93089581918D9388232C
:103DF000E1F7089594E081918D939A95E1F7089504
:103E000081918D930A9519F08823D1F70895EACF0F
:103E1000E199FECFEEBBFFBB3196089591E001C062
:103E200092E07B3751F47FB7F894F2DF8D918DBB30
:103E3000E29AE19A9A95C9F77FBF7727089591E0B2
:103E400001C092E0E5DFE09A8DB38D939A95D1F7AA
:103E50000895689401C0E894AF93BF938D9116F0D4
:103E6000919103C00E940A1D902D891718F011F43A
:103E70008823A1F7BF91AF910895689401C0E89499
:103E80002227102F231709F4089526F40E940A1DF3
:103E9000802D01C08191803081F0891741F070E060
:103EA0008D931A9591F7239571E01D93EACF01D078
:103EB000E8CF703011F077270895772331F42395F8
:103EC000882713958D931A95E9F7089588E00FB622
:103ED000F8945A924A92E42DF52DA42DB52D480E52
:103EE0008827581E0FBE08950FB6F8944990599030
:103EF0000FBE089534DC80E003C031DC802F807871
:103F0000882321F0DF92EF92FF920F938F9331DCA1
:103F1000802F839512F4CDDC1BC080958A95885E36
:103F20000AF415C088501AF40CD0D92210C0DD2430
:103F300088501AF406D0E9220AC0EE2402D0F922F1
:103F400006C09FEF8770990F8A95EAF7089523DCE2
:103F50008F918823D9F35F914F913F912F910F93C8
:103F60006FDD0F9199F390F30ED0506805CDF7DB1C
:103F7000802FFF0C001F901728F4091B881F07953E
:103F8000F794089596CC5FE340E8332722270895FD
:103F9000E6DB0F930F77EADCB1DF8F918078082B97
:103FA000089587CCDCDB0023E2F3D9F388E08FDFD0
:103FB0002CDC1196FF0C001F8FE7080F0795F79474
:103FC0000695F79483E08F9325DC1FDC1397C7DBFE
:103FD0003CDCCADB3897D0DC91E0CADF8F918A9550
:103FE00011F08F93F1CF80CF000000000000003F60
:103FF0000000803F0000C0420024744800000041DF
:104000000000A0400024744900803B45506C616E64
:104010006520636F72733A004730320058005900D0
:104020005A005300460049004A00500052004D30EB
:1040300033003B004D3034004D3035004730340004
:1040400047303300473930004739310047303000BE
:10405000473031004543484F00004E4F4543484FDD
:104060000000474554434F5200004C5824004C591F
:1040700024004C5A240047455452504D00005345EB
:1040800054434F52000053524C00534554484F4D37
:1040900045005053554F4E005053554F4646000073
:1040A000474554494E464F0044434E432050726F9B
:1040B0006A656B742056312E382E37204265746144
:1040C00000004279205232313257617264656E00CD
:1040D0002F772041726E756C662056312E310000AC
:1040E000000053696E63652030392E30372E31352C
:1040F000204920726F6C6C2C000057686F206B6E2B
:104100006F77732077696C6C206B61726D612074BE
:10411000616B652074686520746F6C6C2E0042655D
:10412000696E6720746F6F20676F6F64207375729C
:10413000656C79206973206261642C00627574205B
:104140006C6F7473206F6620706F7765722069736F
:10415000207265616C6C79207261642E00004443AA
:104160004E4320496E7465727074657465722020C8
:10417000436F707972696768742028432920323050
:10418000313620205232313257617264656E000040
:10419000546869732070726F6772616D20636F6D10
:1041A00065732077697468204142534F4C555445DC
:1041B0004C59204E4F2057415252414E54593B20AA
:1041C000666F722064657461696C73007265666500
:1041D0007220746F20746865206D616E75616C204B
:1041E0006F6E207061676520232300005468697337
:1041F000206973206672656520736F6674776172DB
:10420000652C20616E6420796F752061726520775E
:10421000656C636F6D6520746F207265646973747B
:104220007269627574652069742E0000756E64652C
:1042300072206365727461696E20636F6E64697465
:10424000696F6E733B20666F722064657461696C80
:104250007320726566657220746F20746865206DC6
:10426000616E75616C206F6E20706167652023231D
:104270002E0053415645434F52005A4E4F48454138
:1042800054005A484541540041524E554C46000096
:1042900041524E4F4E0041524E4F46460000484F4D
:1042A0004D455A004D4F5653000041524E48454C23
:1042B000500041524E554C462056312E3100436F2E
:1042C0006D6D616E64733A0041524E554C46205BF1
:1042D00058617265615D205B59617265615D0000C6
:1042E000484F4D455A205B585D5B595D0000416C5D
:1042F0006C20636F7264696E6174657320616273B0
:10430000756C757465210000416C6C20636F72647C
:10431000696E6174657320706F7369746976652165
:10432000000024444542554700005265616479000D
:02433000250066
:00000001FF
